{
  "_format": "hh-sol-artifact-1",
  "contractName": "MedicalDocumentNFT",
  "sourceName": "contracts/contract.sol.sol",
  "abi": [
    {
      "inputs": [],
      "stateMutability": "nonpayable",
      "type": "constructor"
    },
    {
      "inputs": [
        {
          "internalType": "address",
          "name": "sender",
          "type": "address"
        },
        {
          "internalType": "uint256",
          "name": "tokenId",
          "type": "uint256"
        },
        {
          "internalType": "address",
          "name": "owner",
          "type": "address"
        }
      ],
      "name": "ERC721IncorrectOwner",
      "type": "error"
    },
    {
      "inputs": [
        {
          "internalType": "address",
          "name": "operator",
          "type": "address"
        },
        {
          "internalType": "uint256",
          "name": "tokenId",
          "type": "uint256"
        }
      ],
      "name": "ERC721InsufficientApproval",
      "type": "error"
    },
    {
      "inputs": [
        {
          "internalType": "address",
          "name": "approver",
          "type": "address"
        }
      ],
      "name": "ERC721InvalidApprover",
      "type": "error"
    },
    {
      "inputs": [
        {
          "internalType": "address",
          "name": "operator",
          "type": "address"
        }
      ],
      "name": "ERC721InvalidOperator",
      "type": "error"
    },
    {
      "inputs": [
        {
          "internalType": "address",
          "name": "owner",
          "type": "address"
        }
      ],
      "name": "ERC721InvalidOwner",
      "type": "error"
    },
    {
      "inputs": [
        {
          "internalType": "address",
          "name": "receiver",
          "type": "address"
        }
      ],
      "name": "ERC721InvalidReceiver",
      "type": "error"
    },
    {
      "inputs": [
        {
          "internalType": "address",
          "name": "sender",
          "type": "address"
        }
      ],
      "name": "ERC721InvalidSender",
      "type": "error"
    },
    {
      "inputs": [
        {
          "internalType": "uint256",
          "name": "tokenId",
          "type": "uint256"
        }
      ],
      "name": "ERC721NonexistentToken",
      "type": "error"
    },
    {
      "anonymous": false,
      "inputs": [
        {
          "indexed": true,
          "internalType": "address",
          "name": "owner",
          "type": "address"
        },
        {
          "indexed": true,
          "internalType": "address",
          "name": "approved",
          "type": "address"
        },
        {
          "indexed": true,
          "internalType": "uint256",
          "name": "tokenId",
          "type": "uint256"
        }
      ],
      "name": "Approval",
      "type": "event"
    },
    {
      "anonymous": false,
      "inputs": [
        {
          "indexed": true,
          "internalType": "address",
          "name": "owner",
          "type": "address"
        },
        {
          "indexed": true,
          "internalType": "address",
          "name": "operator",
          "type": "address"
        },
        {
          "indexed": false,
          "internalType": "bool",
          "name": "approved",
          "type": "bool"
        }
      ],
      "name": "ApprovalForAll",
      "type": "event"
    },
    {
      "anonymous": false,
      "inputs": [
        {
          "indexed": false,
          "internalType": "uint256",
          "name": "_fromTokenId",
          "type": "uint256"
        },
        {
          "indexed": false,
          "internalType": "uint256",
          "name": "_toTokenId",
          "type": "uint256"
        }
      ],
      "name": "BatchMetadataUpdate",
      "type": "event"
    },
    {
      "anonymous": false,
      "inputs": [
        {
          "indexed": true,
          "internalType": "uint256",
          "name": "documentId",
          "type": "uint256"
        },
        {
          "indexed": true,
          "internalType": "address",
          "name": "patient",
          "type": "address"
        },
        {
          "indexed": true,
          "internalType": "address",
          "name": "issuer",
          "type": "address"
        }
      ],
      "name": "DocumentMinted",
      "type": "event"
    },
    {
      "anonymous": false,
      "inputs": [
        {
          "indexed": true,
          "internalType": "uint256",
          "name": "documentId",
          "type": "uint256"
        }
      ],
      "name": "DocumentRevoked",
      "type": "event"
    },
    {
      "anonymous": false,
      "inputs": [
        {
          "indexed": true,
          "internalType": "uint256",
          "name": "documentId",
          "type": "uint256"
        },
        {
          "indexed": true,
          "internalType": "address",
          "name": "from",
          "type": "address"
        },
        {
          "indexed": true,
          "internalType": "address",
          "name": "to",
          "type": "address"
        }
      ],
      "name": "DocumentTransferred",
      "type": "event"
    },
    {
      "anonymous": false,
      "inputs": [
        {
          "indexed": false,
          "internalType": "uint256",
          "name": "_tokenId",
          "type": "uint256"
        }
      ],
      "name": "MetadataUpdate",
      "type": "event"
    },
    {
      "anonymous": false,
      "inputs": [
        {
          "indexed": true,
          "internalType": "address",
          "name": "from",
          "type": "address"
        },
        {
          "indexed": true,
          "internalType": "address",
          "name": "to",
          "type": "address"
        },
        {
          "indexed": true,
          "internalType": "uint256",
          "name": "tokenId",
          "type": "uint256"
        }
      ],
      "name": "Transfer",
      "type": "event"
    },
    {
      "inputs": [
        {
          "internalType": "address",
          "name": "to",
          "type": "address"
        },
        {
          "internalType": "uint256",
          "name": "tokenId",
          "type": "uint256"
        }
      ],
      "name": "approve",
      "outputs": [],
      "stateMutability": "nonpayable",
      "type": "function"
    },
    {
      "inputs": [
        {
          "internalType": "address",
          "name": "owner",
          "type": "address"
        }
      ],
      "name": "balanceOf",
      "outputs": [
        {
          "internalType": "uint256",
          "name": "",
          "type": "uint256"
        }
      ],
      "stateMutability": "view",
      "type": "function"
    },
    {
      "inputs": [
        {
          "internalType": "string",
          "name": "documentURI",
          "type": "string"
        },
        {
          "internalType": "address",
          "name": "_patient",
          "type": "address"
        }
      ],
      "name": "createMedicalDocument",
      "outputs": [
        {
          "internalType": "uint256",
          "name": "",
          "type": "uint256"
        }
      ],
      "stateMutability": "nonpayable",
      "type": "function"
    },
    {
      "inputs": [],
      "name": "getAllMedicalDocuments",
      "outputs": [
        {
          "components": [
            {
              "internalType": "uint256",
              "name": "documentId",
              "type": "uint256"
            },
            {
              "internalType": "address",
              "name": "patient",
              "type": "address"
            },
            {
              "internalType": "address",
              "name": "issuer",
              "type": "address"
            },
            {
              "internalType": "uint256",
              "name": "issuedDate",
              "type": "uint256"
            },
            {
              "internalType": "bool",
              "name": "isActive",
              "type": "bool"
            }
          ],
          "internalType": "struct MedicalDocumentNFT.MedicalDocument[]",
          "name": "",
          "type": "tuple[]"
        }
      ],
      "stateMutability": "view",
      "type": "function"
    },
    {
      "inputs": [
        {
          "internalType": "uint256",
          "name": "tokenId",
          "type": "uint256"
        }
      ],
      "name": "getApproved",
      "outputs": [
        {
          "internalType": "address",
          "name": "",
          "type": "address"
        }
      ],
      "stateMutability": "view",
      "type": "function"
    },
    {
      "inputs": [],
      "name": "getCurrentDocumentId",
      "outputs": [
        {
          "internalType": "uint256",
          "name": "",
          "type": "uint256"
        }
      ],
      "stateMutability": "view",
      "type": "function"
    },
    {
      "inputs": [
        {
          "internalType": "address",
          "name": "_patient",
          "type": "address"
        }
      ],
      "name": "getDocumentsByPatient",
      "outputs": [
        {
          "components": [
            {
              "internalType": "uint256",
              "name": "documentId",
              "type": "uint256"
            },
            {
              "internalType": "address",
              "name": "patient",
              "type": "address"
            },
            {
              "internalType": "address",
              "name": "issuer",
              "type": "address"
            },
            {
              "internalType": "uint256",
              "name": "issuedDate",
              "type": "uint256"
            },
            {
              "internalType": "bool",
              "name": "isActive",
              "type": "bool"
            }
          ],
          "internalType": "struct MedicalDocumentNFT.MedicalDocument[]",
          "name": "",
          "type": "tuple[]"
        }
      ],
      "stateMutability": "view",
      "type": "function"
    },
    {
      "inputs": [
        {
          "internalType": "uint256",
          "name": "_documentId",
          "type": "uint256"
        }
      ],
      "name": "getMedicalDocument",
      "outputs": [
        {
          "components": [
            {
              "internalType": "uint256",
              "name": "documentId",
              "type": "uint256"
            },
            {
              "internalType": "address",
              "name": "patient",
              "type": "address"
            },
            {
              "internalType": "address",
              "name": "issuer",
              "type": "address"
            },
            {
              "internalType": "uint256",
              "name": "issuedDate",
              "type": "uint256"
            },
            {
              "internalType": "bool",
              "name": "isActive",
              "type": "bool"
            }
          ],
          "internalType": "struct MedicalDocumentNFT.MedicalDocument",
          "name": "",
          "type": "tuple"
        }
      ],
      "stateMutability": "view",
      "type": "function"
    },
    {
      "inputs": [],
      "name": "getMyDocuments",
      "outputs": [
        {
          "components": [
            {
              "internalType": "uint256",
              "name": "documentId",
              "type": "uint256"
            },
            {
              "internalType": "address",
              "name": "patient",
              "type": "address"
            },
            {
              "internalType": "address",
              "name": "issuer",
              "type": "address"
            },
            {
              "internalType": "uint256",
              "name": "issuedDate",
              "type": "uint256"
            },
            {
              "internalType": "bool",
              "name": "isActive",
              "type": "bool"
            }
          ],
          "internalType": "struct MedicalDocumentNFT.MedicalDocument[]",
          "name": "",
          "type": "tuple[]"
        }
      ],
      "stateMutability": "view",
      "type": "function"
    },
    {
      "inputs": [],
      "name": "getTotalDocumentsIssued",
      "outputs": [
        {
          "internalType": "uint256",
          "name": "",
          "type": "uint256"
        }
      ],
      "stateMutability": "view",
      "type": "function"
    },
    {
      "inputs": [],
      "name": "hospitalAdmin",
      "outputs": [
        {
          "internalType": "address payable",
          "name": "",
          "type": "address"
        }
      ],
      "stateMutability": "view",
      "type": "function"
    },
    {
      "inputs": [
        {
          "internalType": "address",
          "name": "owner",
          "type": "address"
        },
        {
          "internalType": "address",
          "name": "operator",
          "type": "address"
        }
      ],
      "name": "isApprovedForAll",
      "outputs": [
        {
          "internalType": "bool",
          "name": "",
          "type": "bool"
        }
      ],
      "stateMutability": "view",
      "type": "function"
    },
    {
      "inputs": [
        {
          "internalType": "uint256",
          "name": "documentId",
          "type": "uint256"
        }
      ],
      "name": "isDocumentActive",
      "outputs": [
        {
          "internalType": "bool",
          "name": "",
          "type": "bool"
        }
      ],
      "stateMutability": "view",
      "type": "function"
    },
    {
      "inputs": [],
      "name": "name",
      "outputs": [
        {
          "internalType": "string",
          "name": "",
          "type": "string"
        }
      ],
      "stateMutability": "view",
      "type": "function"
    },
    {
      "inputs": [
        {
          "internalType": "uint256",
          "name": "tokenId",
          "type": "uint256"
        }
      ],
      "name": "ownerOf",
      "outputs": [
        {
          "internalType": "address",
          "name": "",
          "type": "address"
        }
      ],
      "stateMutability": "view",
      "type": "function"
    },
    {
      "inputs": [
        {
          "internalType": "uint256",
          "name": "documentId",
          "type": "uint256"
        }
      ],
      "name": "revokeDocument",
      "outputs": [],
      "stateMutability": "nonpayable",
      "type": "function"
    },
    {
      "inputs": [
        {
          "internalType": "address",
          "name": "from",
          "type": "address"
        },
        {
          "internalType": "address",
          "name": "to",
          "type": "address"
        },
        {
          "internalType": "uint256",
          "name": "tokenId",
          "type": "uint256"
        }
      ],
      "name": "safeTransferFrom",
      "outputs": [],
      "stateMutability": "nonpayable",
      "type": "function"
    },
    {
      "inputs": [
        {
          "internalType": "address",
          "name": "from",
          "type": "address"
        },
        {
          "internalType": "address",
          "name": "to",
          "type": "address"
        },
        {
          "internalType": "uint256",
          "name": "tokenId",
          "type": "uint256"
        },
        {
          "internalType": "bytes",
          "name": "data",
          "type": "bytes"
        }
      ],
      "name": "safeTransferFrom",
      "outputs": [],
      "stateMutability": "nonpayable",
      "type": "function"
    },
    {
      "inputs": [
        {
          "internalType": "address",
          "name": "operator",
          "type": "address"
        },
        {
          "internalType": "bool",
          "name": "approved",
          "type": "bool"
        }
      ],
      "name": "setApprovalForAll",
      "outputs": [],
      "stateMutability": "nonpayable",
      "type": "function"
    },
    {
      "inputs": [
        {
          "internalType": "bytes4",
          "name": "interfaceId",
          "type": "bytes4"
        }
      ],
      "name": "supportsInterface",
      "outputs": [
        {
          "internalType": "bool",
          "name": "",
          "type": "bool"
        }
      ],
      "stateMutability": "view",
      "type": "function"
    },
    {
      "inputs": [],
      "name": "symbol",
      "outputs": [
        {
          "internalType": "string",
          "name": "",
          "type": "string"
        }
      ],
      "stateMutability": "view",
      "type": "function"
    },
    {
      "inputs": [
        {
          "internalType": "uint256",
          "name": "tokenId",
          "type": "uint256"
        }
      ],
      "name": "tokenURI",
      "outputs": [
        {
          "internalType": "string",
          "name": "",
          "type": "string"
        }
      ],
      "stateMutability": "view",
      "type": "function"
    },
    {
      "inputs": [
        {
          "internalType": "uint256",
          "name": "documentId",
          "type": "uint256"
        },
        {
          "internalType": "address",
          "name": "to",
          "type": "address"
        }
      ],
      "name": "transferDocument",
      "outputs": [],
      "stateMutability": "nonpayable",
      "type": "function"
    },
    {
      "inputs": [
        {
          "internalType": "address",
          "name": "from",
          "type": "address"
        },
        {
          "internalType": "address",
          "name": "to",
          "type": "address"
        },
        {
          "internalType": "uint256",
          "name": "tokenId",
          "type": "uint256"
        }
      ],
      "name": "transferFrom",
      "outputs": [],
      "stateMutability": "nonpayable",
      "type": "function"
    },
    {
      "inputs": [
        {
          "internalType": "address payable",
          "name": "_newAdmin",
          "type": "address"
        }
      ],
      "name": "updateAdmin",
      "outputs": [],
      "stateMutability": "nonpayable",
      "type": "function"
    }
  ],
  "bytecode": "0x608060405234801561001057600080fd5b506040518060400160405280600e81526020017f4d65646963616c5265636f7264730000000000000000000000000000000000008152506040518060400160405280600681526020017f4d45445245430000000000000000000000000000000000000000000000000000815250816000908161008c9190610335565b50806001908161009c9190610335565b50505033600760006101000a81548173ffffffffffffffffffffffffffffffffffffffff021916908373ffffffffffffffffffffffffffffffffffffffff160217905550610407565b600081519050919050565b7f4e487b7100000000000000000000000000000000000000000000000000000000600052604160045260246000fd5b7f4e487b7100000000000000000000000000000000000000000000000000000000600052602260045260246000fd5b6000600282049050600182168061016657607f821691505b6020821081036101795761017861011f565b5b50919050565b60008190508160005260206000209050919050565b60006020601f8301049050919050565b600082821b905092915050565b6000600883026101e17fffffffffffffffffffffffffffffffffffffffffffffffffffffffffffffffff826101a4565b6101eb86836101a4565b95508019841693508086168417925050509392505050565b6000819050919050565b6000819050919050565b600061023261022d61022884610203565b61020d565b610203565b9050919050565b6000819050919050565b61024c83610217565b61026061025882610239565b8484546101b1565b825550505050565b600090565b610275610268565b610280818484610243565b505050565b5b818110156102a45761029960008261026d565b600181019050610286565b5050565b601f8211156102e9576102ba8161017f565b6102c384610194565b810160208510156102d2578190505b6102e66102de85610194565b830182610285565b50505b505050565b600082821c905092915050565b600061030c600019846008026102ee565b1980831691505092915050565b600061032583836102fb565b9150826002028217905092915050565b61033e826100e5565b67ffffffffffffffff811115610357576103566100f0565b5b610361825461014e565b61036c8282856102a8565b600060209050601f83116001811461039f576000841561038d578287015190505b6103978582610319565b8655506103ff565b601f1984166103ad8661017f565b60005b828110156103d5578489015182556001820191506020850194506020810190506103b0565b868310156103f257848901516103ee601f8916826102fb565b8355505b6001600288020188555050505b505050505050565b613cad806104166000396000f3fe608060405234801561001057600080fd5b50600436106101735760003560e01c80639111976e116100de578063c87b56dd11610097578063e985e9c511610071578063e985e9c514610482578063f7b7f179146104b2578063f9db3982146104d0578063fba1842a146104ee57610173565b8063c87b56dd1461041a578063e10253841461044a578063e2f273bd1461046657610173565b80639111976e1461035857806395d89b4114610376578063a22cb46514610394578063a3b38115146103b0578063b808b715146103ce578063b88d4fde146103fe57610173565b80633ae61274116101305780633ae612741461025e57806342842e0e1461028e5780636352211e146102aa5780636b08d572146102da57806370a082311461030a57806384fbb47c1461033a57610173565b806301ffc9a71461017857806306fdde03146101a8578063081812fc146101c6578063095ea7b3146101f657806323b872dd1461021257806328ad640c1461022e575b600080fd5b610192600480360381019061018d9190612b10565b61050a565b60405161019f9190612b58565b60405180910390f35b6101b061056b565b6040516101bd9190612c03565b60405180910390f35b6101e060048036038101906101db9190612c5b565b6105fd565b6040516101ed9190612cc9565b60405180910390f35b610210600480360381019061020b9190612d10565b610619565b005b61022c60048036038101906102279190612d50565b61062f565b005b61024860048036038101906102439190612c5b565b610731565b6040516102559190612e38565b60405180910390f35b61027860048036038101906102739190612c5b565b610839565b6040516102859190612b58565b60405180910390f35b6102a860048036038101906102a39190612d50565b610866565b005b6102c460048036038101906102bf9190612c5b565b610886565b6040516102d19190612cc9565b60405180910390f35b6102f460048036038101906102ef9190612e53565b610898565b6040516103019190612f97565b60405180910390f35b610324600480360381019061031f9190612e53565b610ae5565b6040516103319190612fc8565b60405180910390f35b610342610b9f565b60405161034f9190612fc8565b60405180910390f35b610360610ba9565b60405161036d9190612f97565b60405180910390f35b61037e610df4565b60405161038b9190612c03565b60405180910390f35b6103ae60048036038101906103a9919061300f565b610e86565b005b6103b8610e9c565b6040516103c59190612f97565b60405180910390f35b6103e860048036038101906103e39190613184565b61104d565b6040516103f59190612fc8565b60405180910390f35b61041860048036038101906104139190613281565b611177565b005b610434600480360381019061042f9190612c5b565b61119c565b6040516104419190612c03565b60405180910390f35b610464600480360381019061045f9190613304565b6112af565b005b610480600480360381019061047b9190613382565b6114c5565b005b61049c600480360381019061049791906133af565b611608565b6040516104a99190612b58565b60405180910390f35b6104ba61169c565b6040516104c79190612fc8565b60405180910390f35b6104d86116a6565b6040516104e591906133fe565b60405180910390f35b61050860048036038101906105039190612c5b565b6116cc565b005b6000634906490660e01b7bffffffffffffffffffffffffffffffffffffffffffffffffffffffff1916827bffffffffffffffffffffffffffffffffffffffffffffffffffffffff1916148061056457506105638261181e565b5b9050919050565b60606000805461057a90613448565b80601f01602080910402602001604051908101604052809291908181526020018280546105a690613448565b80156105f35780601f106105c8576101008083540402835291602001916105f3565b820191906000526020600020905b8154815290600101906020018083116105d657829003601f168201915b5050505050905090565b600061060882611900565b5061061282611988565b9050919050565b61062b82826106266119c5565b6119cd565b5050565b600073ffffffffffffffffffffffffffffffffffffffff168273ffffffffffffffffffffffffffffffffffffffff16036106a15760006040517f64a0ae920000000000000000000000000000000000000000000000000000000081526004016106989190612cc9565b60405180910390fd5b60006106b583836106b06119c5565b6119df565b90508373ffffffffffffffffffffffffffffffffffffffff168173ffffffffffffffffffffffffffffffffffffffff161461072b578382826040517f64283d7b00000000000000000000000000000000000000000000000000000000815260040161072293929190613479565b60405180910390fd5b50505050565b610739612a47565b600a60008381526020019081526020016000206040518060a0016040529081600082015481526020016001820160009054906101000a900473ffffffffffffffffffffffffffffffffffffffff1673ffffffffffffffffffffffffffffffffffffffff1673ffffffffffffffffffffffffffffffffffffffff1681526020016002820160009054906101000a900473ffffffffffffffffffffffffffffffffffffffff1673ffffffffffffffffffffffffffffffffffffffff1673ffffffffffffffffffffffffffffffffffffffff168152602001600382015481526020016004820160009054906101000a900460ff1615151515815250509050919050565b6000600a600083815260200190815260200160002060040160009054906101000a900460ff169050919050565b61088183838360405180602001604052806000815250611177565b505050565b600061089182611900565b9050919050565b60606000600b60008473ffffffffffffffffffffffffffffffffffffffff1673ffffffffffffffffffffffffffffffffffffffff16815260200190815260200160002080548060200260200160405190810160405280929190818152602001828054801561092557602002820191906000526020600020905b815481526020019060010190808311610911575b5050505050905060008151905060008167ffffffffffffffff81111561094e5761094d613059565b5b60405190808252806020026020018201604052801561098757816020015b610974612a47565b81526020019060019003908161096c5790505b50905060005b82811015610ad95760008482815181106109aa576109a96134b0565b5b60200260200101519050600a60008281526020019081526020016000206040518060a0016040529081600082015481526020016001820160009054906101000a900473ffffffffffffffffffffffffffffffffffffffff1673ffffffffffffffffffffffffffffffffffffffff1673ffffffffffffffffffffffffffffffffffffffff1681526020016002820160009054906101000a900473ffffffffffffffffffffffffffffffffffffffff1673ffffffffffffffffffffffffffffffffffffffff1673ffffffffffffffffffffffffffffffffffffffff168152602001600382015481526020016004820160009054906101000a900460ff161515151581525050838381518110610ac057610abf6134b0565b5b602002602001018190525050808060010191505061098d565b50809350505050919050565b60008073ffffffffffffffffffffffffffffffffffffffff168273ffffffffffffffffffffffffffffffffffffffff1603610b585760006040517f89c62b64000000000000000000000000000000000000000000000000000000008152600401610b4f9190612cc9565b60405180910390fd5b600360008373ffffffffffffffffffffffffffffffffffffffff1673ffffffffffffffffffffffffffffffffffffffff168152602001908152602001600020549050919050565b6000600954905090565b60606000600b60003373ffffffffffffffffffffffffffffffffffffffff1673ffffffffffffffffffffffffffffffffffffffff168152602001908152602001600020805480602002602001604051908101604052809291908181526020018280548015610c3657602002820191906000526020600020905b815481526020019060010190808311610c22575b5050505050905060008151905060008167ffffffffffffffff811115610c5f57610c5e613059565b5b604051908082528060200260200182016040528015610c9857816020015b610c85612a47565b815260200190600190039081610c7d5790505b50905060005b82811015610dea576000848281518110610cbb57610cba6134b0565b5b60200260200101519050600a60008281526020019081526020016000206040518060a0016040529081600082015481526020016001820160009054906101000a900473ffffffffffffffffffffffffffffffffffffffff1673ffffffffffffffffffffffffffffffffffffffff1673ffffffffffffffffffffffffffffffffffffffff1681526020016002820160009054906101000a900473ffffffffffffffffffffffffffffffffffffffff1673ffffffffffffffffffffffffffffffffffffffff1673ffffffffffffffffffffffffffffffffffffffff168152602001600382015481526020016004820160009054906101000a900460ff161515151581525050838381518110610dd157610dd06134b0565b5b6020026020010181905250508080600101915050610c9e565b5080935050505090565b606060018054610e0390613448565b80601f0160208091040260200160405190810160405280929190818152602001828054610e2f90613448565b8015610e7c5780601f10610e5157610100808354040283529160200191610e7c565b820191906000526020600020905b815481529060010190602001808311610e5f57829003601f168201915b5050505050905090565b610e98610e916119c5565b8383611bf9565b5050565b60606000600854905060008167ffffffffffffffff811115610ec157610ec0613059565b5b604051908082528060200260200182016040528015610efa57816020015b610ee7612a47565b815260200190600190039081610edf5790505b50905060005b82811015611044576000600182610f17919061350e565b90506000600a60008381526020019081526020016000209050806040518060a0016040529081600082015481526020016001820160009054906101000a900473ffffffffffffffffffffffffffffffffffffffff1673ffffffffffffffffffffffffffffffffffffffff1673ffffffffffffffffffffffffffffffffffffffff1681526020016002820160009054906101000a900473ffffffffffffffffffffffffffffffffffffffff1673ffffffffffffffffffffffffffffffffffffffff1673ffffffffffffffffffffffffffffffffffffffff168152602001600382015481526020016004820160009054906101000a900460ff16151515158152505084848151811061102a576110296134b0565b5b602002602001018190525050508080600101915050610f00565b50809250505090565b60008073ffffffffffffffffffffffffffffffffffffffff168273ffffffffffffffffffffffffffffffffffffffff16036110bd576040517f08c379a00000000000000000000000000000000000000000000000000000000081526004016110b49061358e565b60405180910390fd5b600860008154809291906110d0906135ae565b9190505550600060085490506110e68382611d68565b6110f08185611d86565b6110fa8184611de2565b6009600081548092919061110d906135ae565b91905055503373ffffffffffffffffffffffffffffffffffffffff168373ffffffffffffffffffffffffffffffffffffffff16827fc8f3e0633cca2b487ec9af87446d994b32871afdf91fcd155912a55b1321460960405160405180910390a48091505092915050565b61118284848461062f565b61119661118d6119c5565b85858585611f7a565b50505050565b60606111a782611900565b5060006006600084815260200190815260200160002080546111c890613448565b80601f01602080910402602001604051908101604052809291908181526020018280546111f490613448565b80156112415780601f1061121657610100808354040283529160200191611241565b820191906000526020600020905b81548152906001019060200180831161122457829003601f168201915b50505050509050600061125261212b565b905060008151036112675781925050506112aa565b60008251111561129c578082604051602001611284929190613632565b604051602081830303815290604052925050506112aa565b6112a584612142565b925050505b919050565b3373ffffffffffffffffffffffffffffffffffffffff166112cf83610886565b73ffffffffffffffffffffffffffffffffffffffff1614611325576040517f08c379a000000000000000000000000000000000000000000000000000000000815260040161131c906136c8565b60405180910390fd5b600073ffffffffffffffffffffffffffffffffffffffff168173ffffffffffffffffffffffffffffffffffffffff1603611394576040517f08c379a000000000000000000000000000000000000000000000000000000000815260040161138b90613734565b60405180910390fd5b6000600a6000848152602001908152602001600020905060003390506113bb8184866121ab565b828260010160006101000a81548173ffffffffffffffffffffffffffffffffffffffff021916908373ffffffffffffffffffffffffffffffffffffffff160217905550600b60008473ffffffffffffffffffffffffffffffffffffffff1673ffffffffffffffffffffffffffffffffffffffff1681526020019081526020016000208490806001815401808255809150506001900390600052602060002001600090919091909150558273ffffffffffffffffffffffffffffffffffffffff168173ffffffffffffffffffffffffffffffffffffffff16857fafd9f2e6dfdde17d593b303bbbb47053d98a7ce79b03ca053d58ae499c7f55ae60405160405180910390a450505050565b600760009054906101000a900473ffffffffffffffffffffffffffffffffffffffff1673ffffffffffffffffffffffffffffffffffffffff163373ffffffffffffffffffffffffffffffffffffffff1614611555576040517f08c379a000000000000000000000000000000000000000000000000000000000815260040161154c906137c6565b60405180910390fd5b600073ffffffffffffffffffffffffffffffffffffffff168173ffffffffffffffffffffffffffffffffffffffff16036115c4576040517f08c379a00000000000000000000000000000000000000000000000000000000081526004016115bb90613832565b60405180910390fd5b80600760006101000a81548173ffffffffffffffffffffffffffffffffffffffff021916908373ffffffffffffffffffffffffffffffffffffffff16021790555050565b6000600560008473ffffffffffffffffffffffffffffffffffffffff1673ffffffffffffffffffffffffffffffffffffffff16815260200190815260200160002060008373ffffffffffffffffffffffffffffffffffffffff1673ffffffffffffffffffffffffffffffffffffffff16815260200190815260200160002060009054906101000a900460ff16905092915050565b6000600854905090565b600760009054906101000a900473ffffffffffffffffffffffffffffffffffffffff1681565b600760009054906101000a900473ffffffffffffffffffffffffffffffffffffffff1673ffffffffffffffffffffffffffffffffffffffff163373ffffffffffffffffffffffffffffffffffffffff161461175c576040517f08c379a0000000000000000000000000000000000000000000000000000000008152600401611753906137c6565b60405180910390fd5b600a600082815260200190815260200160002060040160009054906101000a900460ff166117bf576040517f08c379a00000000000000000000000000000000000000000000000000000000081526004016117b69061389e565b60405180910390fd5b6000600a600083815260200190815260200160002060040160006101000a81548160ff021916908315150217905550807f24ed6693c5b780a9ac9724d06097252bb438a13475f0805f9061bef647af67ee60405160405180910390a250565b60007f80ac58cd000000000000000000000000000000000000000000000000000000007bffffffffffffffffffffffffffffffffffffffffffffffffffffffff1916827bffffffffffffffffffffffffffffffffffffffffffffffffffffffff191614806118e957507f5b5e139f000000000000000000000000000000000000000000000000000000007bffffffffffffffffffffffffffffffffffffffffffffffffffffffff1916827bffffffffffffffffffffffffffffffffffffffffffffffffffffffff1916145b806118f957506118f882612318565b5b9050919050565b60008061190c83612382565b9050600073ffffffffffffffffffffffffffffffffffffffff168173ffffffffffffffffffffffffffffffffffffffff160361197f57826040517f7e2732890000000000000000000000000000000000000000000000000000000081526004016119769190612fc8565b60405180910390fd5b80915050919050565b60006004600083815260200190815260200160002060009054906101000a900473ffffffffffffffffffffffffffffffffffffffff169050919050565b600033905090565b6119da83838360016123bf565b505050565b6000806119eb84612382565b9050600073ffffffffffffffffffffffffffffffffffffffff168373ffffffffffffffffffffffffffffffffffffffff1614611a2d57611a2c818486612584565b5b600073ffffffffffffffffffffffffffffffffffffffff168173ffffffffffffffffffffffffffffffffffffffff1614611abe57611a6f6000856000806123bf565b6001600360008373ffffffffffffffffffffffffffffffffffffffff1673ffffffffffffffffffffffffffffffffffffffff168152602001908152602001600020600082825403925050819055505b600073ffffffffffffffffffffffffffffffffffffffff168573ffffffffffffffffffffffffffffffffffffffff1614611b41576001600360008773ffffffffffffffffffffffffffffffffffffffff1673ffffffffffffffffffffffffffffffffffffffff168152602001908152602001600020600082825401925050819055505b846002600086815260200190815260200160002060006101000a81548173ffffffffffffffffffffffffffffffffffffffff021916908373ffffffffffffffffffffffffffffffffffffffff160217905550838573ffffffffffffffffffffffffffffffffffffffff168273ffffffffffffffffffffffffffffffffffffffff167fddf252ad1be2c89b69c2b068fc378daa952ba7f163c4a11628f55a4df523b3ef60405160405180910390a4809150509392505050565b600073ffffffffffffffffffffffffffffffffffffffff168273ffffffffffffffffffffffffffffffffffffffff1603611c6a57816040517f5b08ba18000000000000000000000000000000000000000000000000000000008152600401611c619190612cc9565b60405180910390fd5b80600560008573ffffffffffffffffffffffffffffffffffffffff1673ffffffffffffffffffffffffffffffffffffffff16815260200190815260200160002060008473ffffffffffffffffffffffffffffffffffffffff1673ffffffffffffffffffffffffffffffffffffffff16815260200190815260200160002060006101000a81548160ff0219169083151502179055508173ffffffffffffffffffffffffffffffffffffffff168373ffffffffffffffffffffffffffffffffffffffff167f17307eab39ab6107e8899845ad3d59bd9653f200f220920489ca2b5937696c3183604051611d5b9190612b58565b60405180910390a3505050565b611d82828260405180602001604052806000815250612648565b5050565b80600660008481526020019081526020016000209081611da69190613a6a565b507ff8e1a15aba9398e019f0b49df1a4fde98ee17ae345cb5f6b5e2c27f5033e8ce782604051611dd69190612fc8565b60405180910390a15050565b6040518060a001604052808381526020018273ffffffffffffffffffffffffffffffffffffffff1681526020013373ffffffffffffffffffffffffffffffffffffffff16815260200142815260200160011515815250600a60008481526020019081526020016000206000820151816000015560208201518160010160006101000a81548173ffffffffffffffffffffffffffffffffffffffff021916908373ffffffffffffffffffffffffffffffffffffffff16021790555060408201518160020160006101000a81548173ffffffffffffffffffffffffffffffffffffffff021916908373ffffffffffffffffffffffffffffffffffffffff1602179055506060820151816003015560808201518160040160006101000a81548160ff021916908315150217905550905050600b60008273ffffffffffffffffffffffffffffffffffffffff1673ffffffffffffffffffffffffffffffffffffffff1681526020019081526020016000208290806001815401808255809150506001900390600052602060002001600090919091909150555050565b60008373ffffffffffffffffffffffffffffffffffffffff163b1115612124578273ffffffffffffffffffffffffffffffffffffffff1663150b7a02868685856040518563ffffffff1660e01b8152600401611fd99493929190613b91565b6020604051808303816000875af192505050801561201557506040513d601f19601f820116820180604052508101906120129190613bf2565b60015b612099573d8060008114612045576040519150601f19603f3d011682016040523d82523d6000602084013e61204a565b606091505b50600081510361209157836040517f64a0ae920000000000000000000000000000000000000000000000000000000081526004016120889190612cc9565b60405180910390fd5b805160208201fd5b63150b7a0260e01b7bffffffffffffffffffffffffffffffffffffffffffffffffffffffff1916817bffffffffffffffffffffffffffffffffffffffffffffffffffffffff19161461212257836040517f64a0ae920000000000000000000000000000000000000000000000000000000081526004016121199190612cc9565b60405180910390fd5b505b5050505050565b606060405180602001604052806000815250905090565b606061214d82611900565b50600061215861212b565b9050600081511161217857604051806020016040528060008152506121a3565b806121828461266c565b604051602001612193929190613632565b6040516020818303038152906040525b915050919050565b600073ffffffffffffffffffffffffffffffffffffffff168273ffffffffffffffffffffffffffffffffffffffff160361221d5760006040517f64a0ae920000000000000000000000000000000000000000000000000000000081526004016122149190612cc9565b60405180910390fd5b600061222b838360006119df565b9050600073ffffffffffffffffffffffffffffffffffffffff168173ffffffffffffffffffffffffffffffffffffffff160361229e57816040517f7e2732890000000000000000000000000000000000000000000000000000000081526004016122959190612fc8565b60405180910390fd5b8373ffffffffffffffffffffffffffffffffffffffff168173ffffffffffffffffffffffffffffffffffffffff1614612312578382826040517f64283d7b00000000000000000000000000000000000000000000000000000000815260040161230993929190613479565b60405180910390fd5b50505050565b60007f01ffc9a7000000000000000000000000000000000000000000000000000000007bffffffffffffffffffffffffffffffffffffffffffffffffffffffff1916827bffffffffffffffffffffffffffffffffffffffffffffffffffffffff1916149050919050565b60006002600083815260200190815260200160002060009054906101000a900473ffffffffffffffffffffffffffffffffffffffff169050919050565b80806123f85750600073ffffffffffffffffffffffffffffffffffffffff168273ffffffffffffffffffffffffffffffffffffffff1614155b1561252c57600061240884611900565b9050600073ffffffffffffffffffffffffffffffffffffffff168373ffffffffffffffffffffffffffffffffffffffff161415801561247357508273ffffffffffffffffffffffffffffffffffffffff168173ffffffffffffffffffffffffffffffffffffffff1614155b801561248657506124848184611608565b155b156124c857826040517fa9fbf51f0000000000000000000000000000000000000000000000000000000081526004016124bf9190612cc9565b60405180910390fd5b811561252a57838573ffffffffffffffffffffffffffffffffffffffff168273ffffffffffffffffffffffffffffffffffffffff167f8c5be1e5ebec7d5bd14f71427d1e84f3dd0314c0f7b2291e5b200ac8c7c3b92560405160405180910390a45b505b836004600085815260200190815260200160002060006101000a81548173ffffffffffffffffffffffffffffffffffffffff021916908373ffffffffffffffffffffffffffffffffffffffff16021790555050505050565b61258f83838361273a565b61264357600073ffffffffffffffffffffffffffffffffffffffff168373ffffffffffffffffffffffffffffffffffffffff160361260457806040517f7e2732890000000000000000000000000000000000000000000000000000000081526004016125fb9190612fc8565b60405180910390fd5b81816040517f177e802f00000000000000000000000000000000000000000000000000000000815260040161263a929190613c1f565b60405180910390fd5b505050565b61265283836127fb565b61266761265d6119c5565b6000858585611f7a565b505050565b60606000600161267b846128f4565b01905060008167ffffffffffffffff81111561269a57612699613059565b5b6040519080825280601f01601f1916602001820160405280156126cc5781602001600182028036833780820191505090505b509050600082602083010190505b60011561272f578080600190039150507f3031323334353637383961626364656600000000000000000000000000000000600a86061a8153600a858161272357612722613c48565b5b049450600085036126da575b819350505050919050565b60008073ffffffffffffffffffffffffffffffffffffffff168373ffffffffffffffffffffffffffffffffffffffff16141580156127f257508273ffffffffffffffffffffffffffffffffffffffff168473ffffffffffffffffffffffffffffffffffffffff1614806127b357506127b28484611608565b5b806127f157508273ffffffffffffffffffffffffffffffffffffffff166127d983611988565b73ffffffffffffffffffffffffffffffffffffffff16145b5b90509392505050565b600073ffffffffffffffffffffffffffffffffffffffff168273ffffffffffffffffffffffffffffffffffffffff160361286d5760006040517f64a0ae920000000000000000000000000000000000000000000000000000000081526004016128649190612cc9565b60405180910390fd5b600061287b838360006119df565b9050600073ffffffffffffffffffffffffffffffffffffffff168173ffffffffffffffffffffffffffffffffffffffff16146128ef5760006040517f73c6ac6e0000000000000000000000000000000000000000000000000000000081526004016128e69190612cc9565b60405180910390fd5b505050565b600080600090507a184f03e93ff9f4daa797ed6e38ed64bf6a1f0100000000000000008310612952577a184f03e93ff9f4daa797ed6e38ed64bf6a1f010000000000000000838161294857612947613c48565b5b0492506040810190505b6d04ee2d6d415b85acef8100000000831061298f576d04ee2d6d415b85acef8100000000838161298557612984613c48565b5b0492506020810190505b662386f26fc1000083106129be57662386f26fc1000083816129b4576129b3613c48565b5b0492506010810190505b6305f5e10083106129e7576305f5e10083816129dd576129dc613c48565b5b0492506008810190505b6127108310612a0c576127108381612a0257612a01613c48565b5b0492506004810190505b60648310612a2f5760648381612a2557612a24613c48565b5b0492506002810190505b600a8310612a3e576001810190505b80915050919050565b6040518060a0016040528060008152602001600073ffffffffffffffffffffffffffffffffffffffff168152602001600073ffffffffffffffffffffffffffffffffffffffff168152602001600081526020016000151581525090565b6000604051905090565b600080fd5b600080fd5b60007fffffffff0000000000000000000000000000000000000000000000000000000082169050919050565b612aed81612ab8565b8114612af857600080fd5b50565b600081359050612b0a81612ae4565b92915050565b600060208284031215612b2657612b25612aae565b5b6000612b3484828501612afb565b91505092915050565b60008115159050919050565b612b5281612b3d565b82525050565b6000602082019050612b6d6000830184612b49565b92915050565b600081519050919050565b600082825260208201905092915050565b60005b83811015612bad578082015181840152602081019050612b92565b60008484015250505050565b6000601f19601f8301169050919050565b6000612bd582612b73565b612bdf8185612b7e565b9350612bef818560208601612b8f565b612bf881612bb9565b840191505092915050565b60006020820190508181036000830152612c1d8184612bca565b905092915050565b6000819050919050565b612c3881612c25565b8114612c4357600080fd5b50565b600081359050612c5581612c2f565b92915050565b600060208284031215612c7157612c70612aae565b5b6000612c7f84828501612c46565b91505092915050565b600073ffffffffffffffffffffffffffffffffffffffff82169050919050565b6000612cb382612c88565b9050919050565b612cc381612ca8565b82525050565b6000602082019050612cde6000830184612cba565b92915050565b612ced81612ca8565b8114612cf857600080fd5b50565b600081359050612d0a81612ce4565b92915050565b60008060408385031215612d2757612d26612aae565b5b6000612d3585828601612cfb565b9250506020612d4685828601612c46565b9150509250929050565b600080600060608486031215612d6957612d68612aae565b5b6000612d7786828701612cfb565b9350506020612d8886828701612cfb565b9250506040612d9986828701612c46565b9150509250925092565b612dac81612c25565b82525050565b612dbb81612ca8565b82525050565b612dca81612b3d565b82525050565b60a082016000820151612de66000850182612da3565b506020820151612df96020850182612db2565b506040820151612e0c6040850182612db2565b506060820151612e1f6060850182612da3565b506080820151612e326080850182612dc1565b50505050565b600060a082019050612e4d6000830184612dd0565b92915050565b600060208284031215612e6957612e68612aae565b5b6000612e7784828501612cfb565b91505092915050565b600081519050919050565b600082825260208201905092915050565b6000819050602082019050919050565b60a082016000820151612ec26000850182612da3565b506020820151612ed56020850182612db2565b506040820151612ee86040850182612db2565b506060820151612efb6060850182612da3565b506080820151612f0e6080850182612dc1565b50505050565b6000612f208383612eac565b60a08301905092915050565b6000602082019050919050565b6000612f4482612e80565b612f4e8185612e8b565b9350612f5983612e9c565b8060005b83811015612f8a578151612f718882612f14565b9750612f7c83612f2c565b925050600181019050612f5d565b5085935050505092915050565b60006020820190508181036000830152612fb18184612f39565b905092915050565b612fc281612c25565b82525050565b6000602082019050612fdd6000830184612fb9565b92915050565b612fec81612b3d565b8114612ff757600080fd5b50565b60008135905061300981612fe3565b92915050565b6000806040838503121561302657613025612aae565b5b600061303485828601612cfb565b925050602061304585828601612ffa565b9150509250929050565b600080fd5b600080fd5b7f4e487b7100000000000000000000000000000000000000000000000000000000600052604160045260246000fd5b61309182612bb9565b810181811067ffffffffffffffff821117156130b0576130af613059565b5b80604052505050565b60006130c3612aa4565b90506130cf8282613088565b919050565b600067ffffffffffffffff8211156130ef576130ee613059565b5b6130f882612bb9565b9050602081019050919050565b82818337600083830152505050565b6000613127613122846130d4565b6130b9565b90508281526020810184848401111561314357613142613054565b5b61314e848285613105565b509392505050565b600082601f83011261316b5761316a61304f565b5b813561317b848260208601613114565b91505092915050565b6000806040838503121561319b5761319a612aae565b5b600083013567ffffffffffffffff8111156131b9576131b8612ab3565b5b6131c585828601613156565b92505060206131d685828601612cfb565b9150509250929050565b600067ffffffffffffffff8211156131fb576131fa613059565b5b61320482612bb9565b9050602081019050919050565b600061322461321f846131e0565b6130b9565b9050828152602081018484840111156132405761323f613054565b5b61324b848285613105565b509392505050565b600082601f8301126132685761326761304f565b5b8135613278848260208601613211565b91505092915050565b6000806000806080858703121561329b5761329a612aae565b5b60006132a987828801612cfb565b94505060206132ba87828801612cfb565b93505060406132cb87828801612c46565b925050606085013567ffffffffffffffff8111156132ec576132eb612ab3565b5b6132f887828801613253565b91505092959194509250565b6000806040838503121561331b5761331a612aae565b5b600061332985828601612c46565b925050602061333a85828601612cfb565b9150509250929050565b600061334f82612c88565b9050919050565b61335f81613344565b811461336a57600080fd5b50565b60008135905061337c81613356565b92915050565b60006020828403121561339857613397612aae565b5b60006133a68482850161336d565b91505092915050565b600080604083850312156133c6576133c5612aae565b5b60006133d485828601612cfb565b92505060206133e585828601612cfb565b9150509250929050565b6133f881613344565b82525050565b600060208201905061341360008301846133ef565b92915050565b7f4e487b7100000000000000000000000000000000000000000000000000000000600052602260045260246000fd5b6000600282049050600182168061346057607f821691505b60208210810361347357613472613419565b5b50919050565b600060608201905061348e6000830186612cba565b61349b6020830185612fb9565b6134a86040830184612cba565b949350505050565b7f4e487b7100000000000000000000000000000000000000000000000000000000600052603260045260246000fd5b7f4e487b7100000000000000000000000000000000000000000000000000000000600052601160045260246000fd5b600061351982612c25565b915061352483612c25565b925082820190508082111561353c5761353b6134df565b5b92915050565b7f496e76616c69642070617469656e742061646472657373000000000000000000600082015250565b6000613578601783612b7e565b915061358382613542565b602082019050919050565b600060208201905081810360008301526135a78161356b565b9050919050565b60006135b982612c25565b91507fffffffffffffffffffffffffffffffffffffffffffffffffffffffffffffffff82036135eb576135ea6134df565b5b600182019050919050565b600081905092915050565b600061360c82612b73565b61361681856135f6565b9350613626818560208601612b8f565b80840191505092915050565b600061363e8285613601565b915061364a8284613601565b91508190509392505050565b7f596f7520617265206e6f7420746865206f776e6572206f66207468697320646f60008201527f63756d656e740000000000000000000000000000000000000000000000000000602082015250565b60006136b2602683612b7e565b91506136bd82613656565b604082019050919050565b600060208201905081810360008301526136e1816136a5565b9050919050565b7f496e76616c696420726563697069656e74206164647265737300000000000000600082015250565b600061371e601983612b7e565b9150613729826136e8565b602082019050919050565b6000602082019050818103600083015261374d81613711565b9050919050565b7f4f6e6c792061646d696e2063616e2063616c6c20746869732066756e6374696f60008201527f6e00000000000000000000000000000000000000000000000000000000000000602082015250565b60006137b0602183612b7e565b91506137bb82613754565b604082019050919050565b600060208201905081810360008301526137df816137a3565b9050919050565b7f496e76616c69642061646d696e20616464726573730000000000000000000000600082015250565b600061381c601583612b7e565b9150613827826137e6565b602082019050919050565b6000602082019050818103600083015261384b8161380f565b9050919050565b7f446f63756d656e7420616c7265616479207265766f6b65640000000000000000600082015250565b6000613888601883612b7e565b915061389382613852565b602082019050919050565b600060208201905081810360008301526138b78161387b565b9050919050565b60008190508160005260206000209050919050565b60006020601f8301049050919050565b600082821b905092915050565b6000600883026139207fffffffffffffffffffffffffffffffffffffffffffffffffffffffffffffffff826138e3565b61392a86836138e3565b95508019841693508086168417925050509392505050565b6000819050919050565b600061396761396261395d84612c25565b613942565b612c25565b9050919050565b6000819050919050565b6139818361394c565b61399561398d8261396e565b8484546138f0565b825550505050565b600090565b6139aa61399d565b6139b5818484613978565b505050565b5b818110156139d9576139ce6000826139a2565b6001810190506139bb565b5050565b601f821115613a1e576139ef816138be565b6139f8846138d3565b81016020851015613a07578190505b613a1b613a13856138d3565b8301826139ba565b50505b505050565b600082821c905092915050565b6000613a4160001984600802613a23565b1980831691505092915050565b6000613a5a8383613a30565b9150826002028217905092915050565b613a7382612b73565b67ffffffffffffffff811115613a8c57613a8b613059565b5b613a968254613448565b613aa18282856139dd565b600060209050601f831160018114613ad45760008415613ac2578287015190505b613acc8582613a4e565b865550613b34565b601f198416613ae2866138be565b60005b82811015613b0a57848901518255600182019150602085019450602081019050613ae5565b86831015613b275784890151613b23601f891682613a30565b8355505b6001600288020188555050505b505050505050565b600081519050919050565b600082825260208201905092915050565b6000613b6382613b3c565b613b6d8185613b47565b9350613b7d818560208601612b8f565b613b8681612bb9565b840191505092915050565b6000608082019050613ba66000830187612cba565b613bb36020830186612cba565b613bc06040830185612fb9565b8181036060830152613bd28184613b58565b905095945050505050565b600081519050613bec81612ae4565b92915050565b600060208284031215613c0857613c07612aae565b5b6000613c1684828501613bdd565b91505092915050565b6000604082019050613c346000830185612cba565b613c416020830184612fb9565b9392505050565b7f4e487b7100000000000000000000000000000000000000000000000000000000600052601260045260246000fdfea26469706673582212202168b496a1ac3fda1db79e897d57a55c41ce6714b75f8b912589cd8ba29f310964736f6c634300081c0033",
  "linkReferences": {},
  "deployedLinkReferences": {}
}